{
  "contractName": "ClippedNFT",
  "abi": [
    {
      "inputs": [
        {
          "internalType": "string",
          "name": "_name",
          "type": "string"
        },
        {
          "internalType": "string",
          "name": "_videoUrl",
          "type": "string"
        },
        {
          "internalType": "string",
          "name": "_creatorName",
          "type": "string"
        }
      ],
      "stateMutability": "nonpayable",
      "type": "constructor"
    },
    {
      "anonymous": false,
      "inputs": [
        {
          "indexed": true,
          "internalType": "address",
          "name": "previousOwner",
          "type": "address"
        },
        {
          "indexed": true,
          "internalType": "address",
          "name": "newOwner",
          "type": "address"
        }
      ],
      "name": "OwnershipTransferred",
      "type": "event"
    },
    {
      "inputs": [],
      "name": "owner",
      "outputs": [
        {
          "internalType": "address",
          "name": "",
          "type": "address"
        }
      ],
      "stateMutability": "view",
      "type": "function"
    },
    {
      "inputs": [],
      "name": "renounceOwnership",
      "outputs": [],
      "stateMutability": "nonpayable",
      "type": "function"
    },
    {
      "inputs": [
        {
          "internalType": "address",
          "name": "newOwner",
          "type": "address"
        }
      ],
      "name": "transferOwnership",
      "outputs": [],
      "stateMutability": "nonpayable",
      "type": "function"
    },
    {
      "inputs": [],
      "name": "getName",
      "outputs": [
        {
          "internalType": "string",
          "name": "",
          "type": "string"
        }
      ],
      "stateMutability": "view",
      "type": "function"
    },
    {
      "inputs": [],
      "name": "getCreator",
      "outputs": [
        {
          "internalType": "string",
          "name": "",
          "type": "string"
        }
      ],
      "stateMutability": "view",
      "type": "function"
    },
    {
      "inputs": [],
      "name": "getVideoUrl",
      "outputs": [
        {
          "internalType": "string",
          "name": "",
          "type": "string"
        }
      ],
      "stateMutability": "view",
      "type": "function"
    }
  ],
  "bytecode": "0x60806040523480156200001157600080fd5b5060405162000fa938038062000fa9833981810160405281019062000037919062000398565b620000576200004b620000db60201b60201c565b620000e360201b60201c565b620000876040518060600160405280602b815260200162000f7e602b913984620001a760201b620004641760201c565b82600190805190602001906200009f92919062000276565b508160029080519060200190620000b892919062000276565b508060039080519060200190620000d192919062000276565b5050505062000641565b600033905090565b60008060009054906101000a900473ffffffffffffffffffffffffffffffffffffffff169050816000806101000a81548173ffffffffffffffffffffffffffffffffffffffff021916908373ffffffffffffffffffffffffffffffffffffffff1602179055508173ffffffffffffffffffffffffffffffffffffffff168173ffffffffffffffffffffffffffffffffffffffff167f8be0079c531659141344cd1fd0a4f28419497f9722a3daafe3b4186f6b6457e060405160405180910390a35050565b620002498282604051602401620001c09291906200047a565b6040516020818303038152906040527f4b5c4277000000000000000000000000000000000000000000000000000000007bffffffffffffffffffffffffffffffffffffffffffffffffffffffff19166020820180517bffffffffffffffffffffffffffffffffffffffffffffffffffffffff83818316178352505050506200024d60201b60201c565b5050565b60008151905060006a636f6e736f6c652e6c6f679050602083016000808483855afa5050505050565b828054620002849062000566565b90600052602060002090601f016020900481019282620002a85760008555620002f4565b82601f10620002c357805160ff1916838001178555620002f4565b82800160010185558215620002f4579182015b82811115620002f3578251825591602001919060010190620002d6565b5b50905062000303919062000307565b5090565b5b808211156200032257600081600090555060010162000308565b5090565b60006200033d6200033784620004de565b620004b5565b9050828152602081018484840111156200035657600080fd5b6200036384828562000530565b509392505050565b600082601f8301126200037d57600080fd5b81516200038f84826020860162000326565b91505092915050565b600080600060608486031215620003ae57600080fd5b600084015167ffffffffffffffff811115620003c957600080fd5b620003d7868287016200036b565b935050602084015167ffffffffffffffff811115620003f557600080fd5b62000403868287016200036b565b925050604084015167ffffffffffffffff8111156200042157600080fd5b6200042f868287016200036b565b9150509250925092565b6000620004468262000514565b6200045281856200051f565b93506200046481856020860162000530565b6200046f8162000630565b840191505092915050565b6000604082019050818103600083015262000496818562000439565b90508181036020830152620004ac818462000439565b90509392505050565b6000620004c1620004d4565b9050620004cf82826200059c565b919050565b6000604051905090565b600067ffffffffffffffff821115620004fc57620004fb62000601565b5b620005078262000630565b9050602081019050919050565b600081519050919050565b600082825260208201905092915050565b60005b838110156200055057808201518184015260208101905062000533565b8381111562000560576000848401525b50505050565b600060028204905060018216806200057f57607f821691505b60208210811415620005965762000595620005d2565b5b50919050565b620005a78262000630565b810181811067ffffffffffffffff82111715620005c957620005c862000601565b5b80604052505050565b7f4e487b7100000000000000000000000000000000000000000000000000000000600052602260045260246000fd5b7f4e487b7100000000000000000000000000000000000000000000000000000000600052604160045260246000fd5b6000601f19601f8301169050919050565b61092d80620006516000396000f3fe608060405234801561001057600080fd5b50600436106100625760003560e01c80630ee2cb101461006757806317d7de7c14610085578063511c2287146100a3578063715018a6146100c15780638da5cb5b146100cb578063f2fde38b146100e9575b600080fd5b61006f610105565b60405161007c91906106dc565b60405180910390f35b61008d610197565b60405161009a91906106dc565b60405180910390f35b6100ab610229565b6040516100b891906106dc565b60405180910390f35b6100c96102bb565b005b6100d3610343565b6040516100e091906106c1565b60405180910390f35b61010360048036038101906100fe919061060a565b61036c565b005b606060038054610114906107f6565b80601f0160208091040260200160405190810160405280929190818152602001828054610140906107f6565b801561018d5780601f106101625761010080835404028352916020019161018d565b820191906000526020600020905b81548152906001019060200180831161017057829003601f168201915b5050505050905090565b6060600180546101a6906107f6565b80601f01602080910402602001604051908101604052809291908181526020018280546101d2906107f6565b801561021f5780601f106101f45761010080835404028352916020019161021f565b820191906000526020600020905b81548152906001019060200180831161020257829003601f168201915b5050505050905090565b606060028054610238906107f6565b80601f0160208091040260200160405190810160405280929190818152602001828054610264906107f6565b80156102b15780601f10610286576101008083540402835291602001916102b1565b820191906000526020600020905b81548152906001019060200180831161029457829003601f168201915b5050505050905090565b6102c3610500565b73ffffffffffffffffffffffffffffffffffffffff166102e1610343565b73ffffffffffffffffffffffffffffffffffffffff1614610337576040517f08c379a000000000000000000000000000000000000000000000000000000000815260040161032e90610755565b60405180910390fd5b6103416000610508565b565b60008060009054906101000a900473ffffffffffffffffffffffffffffffffffffffff16905090565b610374610500565b73ffffffffffffffffffffffffffffffffffffffff16610392610343565b73ffffffffffffffffffffffffffffffffffffffff16146103e8576040517f08c379a00000000000000000000000000000000000000000000000000000000081526004016103df90610755565b60405180910390fd5b600073ffffffffffffffffffffffffffffffffffffffff168173ffffffffffffffffffffffffffffffffffffffff161415610458576040517f08c379a000000000000000000000000000000000000000000000000000000000815260040161044f90610735565b60405180910390fd5b61046181610508565b50565b6104fc828260405160240161047a9291906106fe565b6040516020818303038152906040527f4b5c4277000000000000000000000000000000000000000000000000000000007bffffffffffffffffffffffffffffffffffffffffffffffffffffffff19166020820180517bffffffffffffffffffffffffffffffffffffffffffffffffffffffff83818316178352505050506105cc565b5050565b600033905090565b60008060009054906101000a900473ffffffffffffffffffffffffffffffffffffffff169050816000806101000a81548173ffffffffffffffffffffffffffffffffffffffff021916908373ffffffffffffffffffffffffffffffffffffffff1602179055508173ffffffffffffffffffffffffffffffffffffffff168173ffffffffffffffffffffffffffffffffffffffff167f8be0079c531659141344cd1fd0a4f28419497f9722a3daafe3b4186f6b6457e060405160405180910390a35050565b60008151905060006a636f6e736f6c652e6c6f679050602083016000808483855afa5050505050565b600081359050610604816108e0565b92915050565b60006020828403121561061c57600080fd5b600061062a848285016105f5565b91505092915050565b61063c81610791565b82525050565b600061064d82610775565b6106578185610780565b93506106678185602086016107c3565b61067081610857565b840191505092915050565b6000610688602683610780565b915061069382610868565b604082019050919050565b60006106ab602083610780565b91506106b6826108b7565b602082019050919050565b60006020820190506106d66000830184610633565b92915050565b600060208201905081810360008301526106f68184610642565b905092915050565b600060408201905081810360008301526107188185610642565b9050818103602083015261072c8184610642565b90509392505050565b6000602082019050818103600083015261074e8161067b565b9050919050565b6000602082019050818103600083015261076e8161069e565b9050919050565b600081519050919050565b600082825260208201905092915050565b600061079c826107a3565b9050919050565b600073ffffffffffffffffffffffffffffffffffffffff82169050919050565b60005b838110156107e15780820151818401526020810190506107c6565b838111156107f0576000848401525b50505050565b6000600282049050600182168061080e57607f821691505b6020821081141561082257610821610828565b5b50919050565b7f4e487b7100000000000000000000000000000000000000000000000000000000600052602260045260246000fd5b6000601f19601f8301169050919050565b7f4f776e61626c653a206e6577206f776e657220697320746865207a65726f206160008201527f6464726573730000000000000000000000000000000000000000000000000000602082015250565b7f4f776e61626c653a2063616c6c6572206973206e6f7420746865206f776e6572600082015250565b6108e981610791565b81146108f457600080fd5b5056fea26469706673582212207e92e9a86155fbbe8d1ce2fcd58a0ea18977b7cc3aab607ef08cbfb247e55d4a64736f6c634300080400334465706c6f79696e6720612054686574614d6f6d656e7420636f6e74726163742077697468206e616d653a",
  "immutableReferences": {},
  "source": "//SPDX-License-Identifier: Unlicense\npragma solidity ^0.8.4;\n\nimport \"hardhat/console.sol\";\nimport \"@openzeppelin/contracts/access/Ownable.sol\";\n\ncontract ClippedNFT is Ownable {\n    // A ClippedNFT contract represents digital ownership over a video file produced by a ThetaTV creator.\n    \n    string private name; // Name of the theta video contract / item.\n    string private videoUrl; // Link to the theta NFT video file.\n    string private creatorName; // Theta creator of the video.\n\n    constructor(string memory _name, string memory _videoUrl,  string memory _creatorName) {\n        console.log(\"Deploying a ClippedNFT contract with name:\", _name);\n        name = _name;\n        videoUrl = _videoUrl;\n        creatorName = _creatorName;\n    }\n\n    function getName() public view returns (string memory) {\n        return name;\n    }\n\n    function getCreator() public view returns (string memory) {\n        return creatorName;\n    }\n\n    function getVideoUrl() public view returns (string memory) {\n        return videoUrl;\n    }\n\n}",
  "sourcePath": "/Users/chrisbuonocore/personal/hackathons/theta22/contracts/contracts/ClippedNFT.sol",
  "compiler": {
    "name": "solc",
    "version": "0.8.4+commit.c7e474f2.Emscripten.clang"
  },
  "schemaVersion": "3.4.6",
  "updatedAt": "2022-03-21T01:11:51.524Z",
  "devdoc": {
    "kind": "dev",
    "methods": {
      "owner()": {
        "details": "Returns the address of the current owner."
      },
      "renounceOwnership()": {
        "details": "Leaves the contract without owner. It will not be possible to call `onlyOwner` functions anymore. Can only be called by the current owner. NOTE: Renouncing ownership will leave the contract without an owner, thereby removing any functionality that is only available to the owner."
      },
      "transferOwnership(address)": {
        "details": "Transfers ownership of the contract to a new account (`newOwner`). Can only be called by the current owner."
      }
    },
    "version": 1
  },
  "userdoc": {
    "kind": "user",
    "methods": {},
    "version": 1
  }
}